:020000040800F2
:10000000A06404248D040008F74A0008BB460008D9
:10001000F54A0008FF2400088D5200080000000087
:10002000000000000000000000000000CD030008F8
:100030005D2600080000000029040008C94D0008E2
:10004000A7040008A7040008A7040008A7040008E4
:10005000A7040008B94C0008A7040008A70400087A
:10006000A7040008A7040008A70400084526000804
:10007000A7040008A7040008A7040008A7040008B4
:10008000A7040008A7040008A7040008A7040008A4
:10009000A7040008A7040008A7040008A704000894
:1000A000A7040008A7040008A7040008A704000884
:1000B000A7040008A7040008A7040008A704000874
:1000C000A7040008A7040008A7040008A704000864
:1000D000A70400086952000875520008A704000828
:1000E000A7040008A7040008000000000951000848
:1000F000A7040008A7040008A7040008A704000834
:10010000A7040008A7040008A7040008A704000823
:10011000A7040008A7040008F1500008FD500008DB
:10012000A7040008A7040008A7040008A704000803
:10013000A7040008A7040008A7040008A7040008F3
:1001400000000000000000000000000000000000AF
:10015000A7040008A7040008A704000881520008AB
:10016000A7040008A7040008A7040008A7040008C3
:10017000A7040008A7040008A7040008A7040008B3
:10018000A7040008A7040008A7040008A7040008A3
:10019000A7040008A7040008A7040008A704000893
:1001A000BD460008A704000851260008A70400085F
:1001B000A7040008A7040008A7040008A704000873
:1001C000A7040008A7040008A7040008A704000863
:1001D000A70400089DEC0090A7040008A7040008ED
:1001E000A7040008A7040008A7040008A704000843
:1001F000A7040008A7040008A7040008A704000833
:10020000A7040008A7040008A7040008A704000822
:10021000D9500008E5500008A7040008A70400080A
:10022000A7040008A7040008A704000800000000B5
:10023000A7040008A704000800000000A7040008A5
:10024000A7040008A7040008A7040008A7040008E2
:10025000A7040008A7040008A7040008A7040008D2
:10026000A7040008A7040008A7040008A7040008C2
:10027000A7040008A7040008A70400080000000065
:10028000A7040008A7040008A70400080000000055
:1002900000000000A704000800F002F800F087F852
:1002A0000AA090E8000C82448344AAF10107DA45D1
:1002B00001D100F07CF8AFF2090EBAE80F0013F09C
:1002C000010F18BFFB1A43F001031847BCA7010038
:1002D000DCA701000A444FF0000C10F8013B13F0BA
:1002E000070408BF10F8014B1D1108BF10F8015B8F
:1002F000641E05D010F8016B641E01F8016BF9D182
:1003000013F0080F1EBF10F8014BAD1C0C1B09D1D8
:100310006D1E58BF01F801CBFAD505E014F8016B4A
:1003200001F8016B6D1EF9D59142D6D370470000DC
:100330000023002400250026103A28BF78C1FBD8EE
:10034000520728BF30C148BF0B607047662918F0BC
:10035000F885642900F0A281752900F09F81782931
:1003600000F0D881632900F08A87732900F08F8715
:10037000002070471FB518F0DFFD9DE8030001F075
:1003800031F801F013F804000020002118F046FDB8
:10039000401C60600020002118F02AFDE06000F0A1
:1003A00053FC1FBD10B5002000F0C0FF10BD01F0D0
:1003B000CDF91146FFF7DEFF16F012FB01F013FA3C
:1003C00003B4FFF7EFFF03BC01F019FE2C4B1968D3
:1003D0000868B0E8F04F80F30988BFF36F8F4FF0E3
:1003E000000080F311887047000000000848006892
:1003F000006880F308884FF0000080F3148862B62C
:1004000061B6BFF34F8FBFF36F8F00DF00BF00BF38
:1004100008ED00E0DFF80C00016841F470010160B4
:10042000704700BF88ED00E0EFF30980BFF36F8FE6
:10043000134B1A681EF0100F08BF20ED108A20E938
:10044000F04F106009B44FF0500080F31188BFF3F3
:100450004F8FBFF36F8F17F08DFC4FF0000080F3CC
:10046000118809BC19680868B0E8F04F1EF0100F39
:1004700008BFB0EC108A80F30988BFF36F8F704714
:1004800048000024EFF305807047000009488047CA
:1004900009480047FEE7FEE7FEE7FEE7FEE7FEE766
:1004A000FEE7FEE7FEE7FEE704480549054A064B7E
:1004B00070470000E54E000899020008A04404249B
:1004C000A0640424A0540424A0540424704753EAD4
:1004D000020C00F069802DE9F04B4FF00006002B74
:1004E0001FBFB3FA83F503FA05F424FA05F65E405C
:1004F00012BF1643B2FA82F502FA05F4C5F12005DF
:100500001EBF22FA05FC44EA0C04203556EA044CCE
:100510004FEA144418BF641C4FF000084FF0000964
:10052000904271EB030C39D3002919BFB1FA81F75E
:1005300001FA07F6B0FA80F700FA07F6C7F12007CC
:100540001EBF20FA07FC46EA0C062037B6FBF4FC77
:10055000A7EB0507103F07F01F0BCBF120060CFAA5
:100560000BFB2CFA06F644BFB3460026202FA4BF8F
:100570005E464FF0000B5BEA060C08BF4FF0010B24
:1005800019EB0B09ABFB027C48EB0608C01B06FB12
:1005900002CC0BFB03CC71EB0C01C1E70B4602460E
:1005A00041464846BDE8F08B13B54FF000004FF0D0
:1005B0000001AFF30080BDE81C4070470FB4044950
:1005C00010B503AA029800F067FE10BC5DF814FB9A
:1005D000280000240FB41CB5074B06AA7B446946CB
:1005E0000090059800F029FE0020694600F038FED2
:1005F0001CBC5DF814FB0000810C000070B50446C3
:1006000085690068C10601D5302600E02026C007B4
:1006100007D070BDD4E9012130469047206A401CC4
:1006200020626D1EF6D570BD70B5044685690078F0
:10063000C00707D170BDD4E9012120209047206A6E
:10064000401C20626D1EF6D570BD70B50C46054687
:10065000012A05D02878800600D5EA69002302E047
:10066000012305E05B1C934202D2E05C0028F9D133
:10067000A869E618C01AA861286A184428622846A2
:10068000FFF7BCFF04E0D5E9012114F8010B904706
:10069000B442F8D32846FFF7C7FF70BD2DE9F041FB
:1006A0000646002410687529314616A510D0AFF310
:1006B0000080002802DA404213A507E031688A076B
:1006C00001D512A502E0490704D511A5012401E0D6
:1006D000AFF3008000210A2206F1240709E0B0FBF5
:1006E000F2FCB0FBF2F302FB1C00303078541846E9
:1006F000491C0028F3D123462A463046BDE8F04184
:1007000000F02FBB000000002D0000002B000000B7
:100710002000000070B504460D4621461068AFF376
:1007200000802188090502D50F4A7A4402E00E4A6A
:100730007A440E32002104F1240305E000F00F0694
:100740000009965D5E54491C0028F7D120780023EB
:10075000000704D5702D02D009B1022311322046C2
:10076000BDE8704000F0FDBAEA8801002DE9F05FB5
:10077000894604464FF0000ADFF874B1FB44C0F824
:1007800020A02046E1688847002874D0252806D09C
:10079000D4E901219047206A401C2062F1E700263D
:1007A0005F462046E16888472028054607DB312D53
:1007B00005D2781910F8200C08B10643F1E7B0070C
:1007C00001D526F00406C4F81CA00027C4F818A020
:1007D0002A2D09D0284615F0D9FF38B304EB870835
:1007E000303DC8F8185019E059F8041B204604EBB6
:1007F00087029161E1688847012F054618D1E069B9
:10080000002820DA26F020061DE0D8F8180000EBBA
:10081000800005EB40003038C8F818002046E16839
:100820008847054615F0B2FF0028EED1012F0AD007
:100830002E2D08D12046E16888477F1C0546022FEF
:1008400046F02006C4DBA069002803DA404246F0E7
:100850000106A061F00701D026F010066C2D0BD028
:10086000682D09D04C2D39D06A2D35D0742D35D056
:100870007A2D33D016E038E0E1682F4620468847CD
:10088000B842054609D16C2F26D04FF48060E1684C
:10089000064320468847054604E06C2F1AD04FF4E3
:1008A000807006430DB3A5F14100192802D8203508
:1008B00046F400664A462946204626604E46FFF723
:1008C00045FD80B101280BD0F61D26F0070000F190
:1008D000080956E74020E4E78020D8E70020D6E763
:1008E00006F104094DE7284652E7206ABDE8F09F6B
:1008F000C088010070B5064600F0CEF904680546D0
:1009000030460A22002100F0D9FC2C6070BD10B5E1
:10091000002000F02CFDFFF745FDBDE81040012050
:1009200001F06DBB2DE9F041074615460E4610203B
:1009300000F0B6F904000AD06760C4E9026500F06F
:10094000A7F90168216004600020BDE8F081012062
:10095000FBE740EA0103024630B59B0710D14FF098
:10096000013400E008C208C91D1B9D4315EAC41FDD
:10097000F8D013F0FF0102F8011B0DD01B0AF8E7B5
:1009800011F8013B002B02F8013B05D011F8013BA7
:10099000002B02F8013BF3D130BD10B5431C02E03F
:1009A00010F8011B71B18107FAD14FF0013202C872
:1009B0008C1A8C4314EAC211F9D0C01A0A0603D06B
:1009C000C01E10BDC01A10BD0A0401D0801E10BD8B
:1009D0000902FCD0401E10BD421E12F8013F002B40
:1009E000FBD111F8013B002B02F8013BF9D1704714
:1009F000032A40F2308010F0030C00F0158011F84B
:100A0000013BBCF1020F624498BF11F801CB00F822
:100A1000013B38BF11F8013BA2F1040298BF00F876
:100A200001CB38BF00F8013B11F0030300F0258033
:100A3000083AC0F0088051F8043B083A51F804CB5A
:100A4000A0E80810F5E7121D5CBF51F8043B40F820
:100A5000043BAFF30080D20724BF11F8013B11F82B
:100A600001CB48BF11F8012B24BF00F8013B00F86F
:100A700001CB48BF00F8012B704710B5203AC0F0F9
:100A80000B80B1E81850203AA0E81850B1E818508F
:100A9000A0E81850BFF4F5AF5FEA027C24BFB1E8CC
:100AA0001850A0E8185044BF18C918C0BDE810403D
:100AB0005FEA827C24BF51F8043B40F8043B08BF46
:100AC0007047D20728BF31F8023B48BF11F8012B0D
:100AD00028BF20F8023B48BF00F8012B704702F006
:100AE000FF0343EA032242EA024200F002B84FF059
:100AF00000020429C0F0128010F0030C00F01B80EB
:100B0000CCF1040CBCF1020F18BF00F8012BA8BFF8
:100B100020F8022BA1EB0C0100F00DB85FEAC17CBC
:100B200024BF00F8012B00F8012B48BF00F8012B6F
:100B300070474FF0000200B51346944696462039A0
:100B400022BFA0E80C50A0E80C50B1F12001BFF486
:100B5000F7AF090728BFA0E80C5048BF0CC05DF8EC
:100B600004EB890028BF40F8042B08BF704748BF3A
:100B700020F8022B11F0804F18BF00F8012B7047AE
:100B800010B5044610F0030F08BF11F0030F40F03A
:100B900015804FF0013E121FC0F20E8051F8043B49
:100BA000A3EB0E0C2CEA030C1CEACE1C08BF40F889
:100BB000043BF0D0A1F1040102F10402521E08DB53
:100BC00011F8013B002B00F8013BF7D11146FFF76C
:100BD0008EFF204610BD00004FF0013C50F8042B62
:100BE00051F8043B9A4215D1A2EB0C03934313EA4C
:100BF000CC130BD150F8042B51F8043B9A4209D185
:100C0000A2EB0C03934313EACC13E7D04FF00000A0
:100C1000704700BFD01A01BAB1FA81F101F0180192
:100C200022FA01F0CB40C1F12001DBB2C0B2C01A00
:100C30002CFA01F3D11A914311EAC311E6D170479E
:100C4000704770477047000070B5064C7C44064DF5
:100C50007D4403E0206820448047241DAC42F9D144
:100C600070BD0000849F0100909F01002DE9F041BC
:100C700017460E46054633B107FB0354E41B2046D6
:100C8000B047A542FAD1A5F10800BDE8F081704750
:100C90000048704750910024004870471891002484
:100CA00070B5064600F07EFB056806F10B0020F0EB
:100CB0000704B4429CBF002070BD2B466A68BAB1DD
:100CC0001068A04210D304F1080188423CBF50686C
:100CD000586007D35168101941601168091B016001
:100CE00058601460101D70BD13465268002AE7D189
:100CF0002146284600F062FB0028DED170BD70B5A9
:100D00000446051F00F04EFB0068002C14BF446829
:100D100070BD002C18BFAC423CBF20466468F8D3BD
:100D200001680A18AA4218BF456003D12A6805461F
:100D30001144016028684119A1421CBF6C6070BD5C
:100D40006168696021680844286070BD10B5FFF7CC
:100D5000A3FF006810BD10B50446FFF79DFF0460B7
:100D600010BD2DE9F0470D4699469246044600F124
:100D700024080168880604D5E06921F0100121608B
:100D800000E00120A84201DD471B00E00027A16927
:100D90007A1902EB0900081AA0612078C00602D473
:100DA0002046FFF72BFC002608E0D4E901211AF8C1
:100DB00006009047206A401C761C20624E45F4DBFA
:100DC0002078C0060AD52046FFF718FC06E0D4E9D3
:100DD000012130209047206A401C2062381EA7F174
:100DE0000107F4DC07E0D4E9012118F80500904779
:100DF000206A401C2062281EA5F10105F3DC204674
:100E0000FFF712FC2078000602D50220BDE8F0872B
:100E10000120FBE770472DE9FF4F0C461E464FF0BF
:100E2000FF378BB0D2E90001DDF860800A908A4676
:100E3000C1F30A5505B93D46002108464FF00000B0
:100E4000BAF1000F00F4400005DA00EB80004FF427
:100E5000400101EA50004FEA9059B9F1010F00DD5D
:100E6000B9460A9850EA4A000ED044F61050A5F24E
:100E7000FF3545432F14B8F1000F1ED07542291ECF
:100E80001EDDC9F100021CE0B8F1010F4FF00000B7
:100E900001D0302103E0F24305E02154401CB04270
:100EA000FBDB30460022002121540B99C1F8088059
:100EB000C1E900200FB0BDE8F08FBD1B6D1CDEE75F
:100EC0004A4600DA694206A800F098FB06AB93E8B0
:100ED000070003AB83E8070050460A9900F0D4FCF2
:100EE0008DE80700A0F500501F3800900398002DF2
:100EF00009DD42F21F014A46084403A903906846EF
:100F000000F033FF08E0A0F500504A461F3803A95F
:100F10000390684600F03DFF8DE807000004000CD8
:100F200003D04FF0FF30410800E01046B8F1000F49
:100F300003D00022009215461EE0751E05D400F075
:100F400087FA303262556D1EF9D5B3460122084347
:100F500002D000227F1C04E02078302801D100223A
:100F60007F1E002A099786D01DE0112D07DA00F0B8
:100F70006FFA303262556D1C50EA0102F5D1084318
:100F800002D00098C8B10EE00021681E05E0235C85
:100F9000625C63542254401E491C8142F7DBAB461D
:100FA000A81B401E0990002004F80B000B98099A1A
:100FB000C0F80880C0E9002B7CE711264FF000083C
:100FC00059E72DE9F04F88460446D21D22F007016B
:100FD00091B0D1E90001CDE90A0115F00DF8024602
:100FE0000B98C00F01D02D2007E02068810701D5A4
:100FF0002B2002E0202101EAC000032A099001D041
:10100000072A05DB03464146204600F067FA0BE15C
:101010002078800601D5E06900E00620B8F1650F70
:10102000814606D0B8F1660F18D0B8F1670F70D1BD
:1010300031E00020B9F1110F009001DB112301E034
:1010400009F101030AAA01A90CA8FFF7E4FEDDE9F2
:101050000C70002609F10105834647E001204B464C
:1010600000904FF000470AAA01A90CA8FFF7D3FE91
:10107000DDE90DB00C995D46002610B909F10100BB
:101080000D18B9EB050003D4C0F1FF3609F10105D5
:10109000A5EB09002BE0B9F1010F01DA4FF00109CE
:1010A0000020B9F1110F0090484601DD112300E046
:1010B00003460AAA01A90CA8FFF7ADFEDDE90C70F2
:1010C0004D4600268346207800070AD4AB4500DA57
:1010D0005D4601A8012D04DD411911F8011C3029DC
:1010E00007D04F4502DA17F1040F04DA01208246D7
:1010F0000FE06D1EEEE7002F02DCED1B3E4403E027
:10110000781CA84200DD7D1CB81B00F1010A4FF0DD
:1011100000472078000703D4AA4501DB4FF0FF3ACF
:101120000021B7F1004F0DF143088DF8431024D092
:1011300002202B23002F01DA7F422D230A21021ED9
:10114000A0F1010000DC5FB197FBF1FC97FBF1F22D
:1011500001FB1C7C17460CF1300C08F801CDEEE7C2
:10116000A8F1010003702188090501D5452100E09F
:101170006521A0F1010800F8011C09980FA9A1EB55
:101180000807FF1D00B10120411901EBEA70A169B8
:101190003844081A401EA0612078C00602D42046B8
:1011A000FFF72CFA099828B1D4E901219047206A69
:1011B000401C20622078C00622D52046FFF71EFA88
:1011C0001EE0002E04DBB34502DD01A8805D00E0D7
:1011D0003020D4E901219047206A401C2062761C0F
:1011E000AAF101005FEA000A0AD100F0DFF8C06846
:1011F0000168405CD4E901219047206A401C2062CC
:10120000281EA5F10105DCDC07E0D4E9012118F86E
:10121000010B9047206A401C2062381EA7F101078D
:10122000F3DC2046FFF700FA032011B043E600008C
:1012300001694A1C02610878704700B58FB0CDE99A
:1012400001310021059105497944CDE9031011468A
:101250006846FFF78BFA0FB000BD0000E5FFFFFF07
:101260000A6802F8010B0A60704710B5436913B1B0
:10127000AFF3008001E0FFF7E8F9012010BD12781C
:1012800000F124010A7000224A700122EDE7116882
:101290004FF0FF32E9E70000074B70B50D467B4485
:1012A000FFF7CBFF0446284600F016FA10B14FF0C6
:1012B000FF3070BD204670BD9F5403882DE9F04774
:1012C00091460F4680460446002614F8015B2DB176
:1012D00000F060F80068405DC007F6D12B2D02D009
:1012E0002D2D18D0641E4A463946204600F036F9A6
:1012F00027B13968A14201D1C7F800804FF002043C
:1013000071050BD54042002803DDFFF7C5FC0460E2
:10131000A007BDE8F08746F48066E4E70028F8DA25
:10132000FFF7BAFC04606FF00040F2E72DE9F041EE
:101330000646FFF7ADFC8046454613E016B1E0686F
:10134000B0420ED120682860D4E90101D8F80070BD
:1013500088472046FFF7D3FCD8F80000B842EBD10D
:1013600000E025462C68002CE8D1BDE8F08110B5DE
:1013700000F0BCF9BDE8104000F0B2B910B500F0C3
:10138000CDF9BDE8104000F0ABB90000004870474F
:101390001891002410B500F009F8001D10BD00BF21
:1013A0007D7A010000487047209100240048704772
:1013B00038910024704770477047704738B504462D
:1013C0000A4600206946AFF30080002808BF38BDF8
:1013D00002460099204600F0DEF9012038BD0120C8
:1013E00000F023BAF8B5AFF30080054600200C46A4
:1013F000102000BF0646A819A0420DD93246694602
:101400000020AFF30080070008BF00F00EFA00983C
:10141000A04218BF0546C419FFF7C4FF0560074680
:10142000F01D20F007004619284600F00AF8B442E3
:1014300008BFF8BDA21B31463868BDE8F84000F08F
:10144000AAB900210160C0E901107047102070475F
:1014500030B5B0F10A024FEA900E71F100034EEA86
:10146000817EB0EB0E0061EB91014FEA101E4EEA57
:10147000017E10EB0E0041EB11114FEA102E4EEAE7
:10148000016E10EB0E0041EB11214FEA104E4EEAB7
:10149000014E10EB0E0041EB1141401841F10001EB
:1014A0004FEAD00040EA41704FEAD10110EB8005CD
:1014B0004FEA810444EA907444EB01046D1944EB53
:1014C0000404521BA3414FF0000348BF0A3200D569
:1014D00030BD401C41F1000130BD00002DE9F0415C
:1014E0001F46044603260168072A01F4006004DB56
:1014F00008B116A505E016A503E008B115A500E0A2
:1015000015A521F010002060A069C01EA0610FB1D8
:10151000401EA0612046FFF771F84FB1D4E90121C8
:1015200038469047206A401C2062C01C206206E0BA
:10153000206AFAE7D4E9012115F8010B9047761EDD
:10154000F8D22046FFF770F8BDE8F0814E414E001A
:101550006E616E00494E4600696E66002DE9F05FCF
:10156000824615468B4600270AF10104B9460078E9
:10157000302801D09DB113E014F8010B0127782821
:1015800003D0582801D045B10AE00DB1102D07D184
:10159000002714F8010B102502E0082500E00A25B9
:1015A0000026B0460EE005FB080005FB06F101270A
:1015B0001FFA80F801EB1046B6F5803F00D3B9461C
:1015C00014F8010B294600F000F90028EBDABBF112
:1015D000000F05D00FB1641E00E05446CBF8004068
:1015E000B9F1000F06D0FFF757FB02210160C81EBA
:1015F000BDE8F09F48EA0640FAE700002DE9F04711
:10160000814616468AB0334878440DC88DE80D00EF
:1016100030487844801C03AC0DC884E80D0041F6C6
:101620009B300844372190FBF1F290FBF1F5A5F1D6
:10163000800501FB12041B3C02D56442012000E03E
:101640000020DFF890A080460027FA44AAF1BE0AE5
:101650000DE0E00709D03246684607EB47010AEB88
:10166000810100F096FB8DE8070064107F1C002CC0
:10167000EFD1184F7F44AC3F18E0E80714D007EBD8
:1016800004100DF1180A90E80E008AE80E00C068F8
:10169000F04201D198190890324606A903A800F03B
:1016A00078FB03AB83E807006D10641C002DE4D1C8
:1016B00032466946B8F1000F03A802D000F055FB8E
:1016C00001E000F066FBC9E90001C9F808200AB092
:1016D000BDE8F087E47A0100007B00F080007047ED
:1016E000002801D000F08BBC7047000010B500212D
:1016F00002A000F081F8012010BD000053494741CD
:101700004252543A2041626E6F726D616C20746572
:10171000726D696E6174696F6E00000010B5002112
:1017200002A000F069F8012010BD000053494750A5
:1017300056464E3A2050757265207669727475610E
:101740006C20666E2063616C6C6564007546FFF703
:101750001DFEAE4605006946534620F0070085464B
:1017600018B020B5FEF7A0FEBDE820404FF00006FF
:101770004FF000074FF000084FF0000B21F0070179
:10178000AC46ACE8C009ACE8C009ACE8C009ACE8BC
:10179000C0098D467047034640688C46002818BF34
:1017A00088423CBF03464068F8D318681844884212
:1017B00007D00CF1030020F00700001D411A521A57
:1017C0000146081D0A60FFF79ABA3A2800D230385D
:1017D00020F02002412A01D3A2F13700884201D330
:1017E0004FF0FF30704710B50446AFF3008020463D
:1017F000BDE81040FEF7E4BD70B505460C460A2072
:1018000000E06D1C00F000FC35B128780028F8D10C
:1018100002E0641C00F0F8FB14B120780028F8D135
:10182000BDE870400A2000F0EFBB10B500F004F8EE
:10183000BDE81040FFF754BF10B5012805D00021C6
:1018400003A0FFF7D9FF012010BD09A1F8E70000B0
:1018500053494752544D454D3A204F7574206F6699
:101860002068656170206D656D6F72790000000001
:101870003A2048656170206D656D6F727920636FE5
:1018800072727570746564005FEA400C08BF91F075
:10189000000F4FEA8C234FEAC12243EA51514FEA2D
:1018A0001C5018BF00F5F0404FEA300018BF41F05F
:1018B00000415FEA6C5C00F02980BCF1FF3F08BF8B
:1018C00040F080407047130C06BF12044FF0100C1C
:1018D0004FF0000C130E04BF12020CF1080C130F92
:1018E00004BF12010CF1040C930F04BF92000CF121
:1018F000020CD30F04BF52000CF1010C11464FF043
:101900000002A0F11F00A0EB0C00704711F0004F87
:1019100008BF704731F000413FF4D5AF0B0C06BF54
:1019200009044FF0100C4FF0000C0B0E04BF09021D
:101930000CF1080C0B0F04BF09010CF1040C8B0F08
:1019400004BF89000CF1020CCB0F04BF49000CF15D
:10195000010CCCF12003A0EB0C0022FA03F302FAF5
:101960000CF241EA030100F10100704720F07F4CC6
:1019700080EA030023F07F47ACEB070303F57C53B9
:1019800000F0004003F1FF032DE980494FEA154BB9
:1019900009B44FEA144325EA0B4E24EA03480FF238
:1019A000042606EB132749083E785FEA320203FB60
:1019B0000667C7F5000707FB06F64FEA54374FEAFC
:1019C000D64606F1020607FB066CCCF1005C4FEA36
:1019D0001C472CEA074C07FB06F40CFB06F504EB4E
:1019E00015464FEA961634BF00204FF000404FEAEC
:1019F000D13706FB07FC4FEA1C4C0CFB0BF7D21B44
:101A000003FB0CF761EB07010CFB0EF7B0EB074093
:101A100072EB17420CFB08F734BFA2EB0742B2EBA4
:101A2000074261EB17414FEA0C444FEA910706FB6E
:101A300007FC4FEA1C4C0CFB0BF7B0EBC74072EBFA
:101A4000573203FB0CF734BFA2EBC742B2EBC742DD
:101A500061EB57310CFB0EF7B0EBC70072EB57721E
:101A60000CFB08F734BFA2EBC702B2EBC70261EB75
:101A70005771039F4FEA816141EA921104EBCC0454
:101A80004FEAD1374FEA826206FB07FC42EA901226
:101A90004FEA80604FEA1C4C0CFB0BF7D21B03FB98
:101AA0000CF761EB07010CFB0EF7B0EB074072EB94
:101AB00017420CFB08F734BFA2EB0742B2EB074218
:101AC00061EB17414FEA8C554FEA910704EB9C24D8
:101AD00006FB07FC4FEA1C4C0CFB0BF7B0EBC740B6
:101AE00072EB573203FB0CF734BFA2EBC742B2EBE9
:101AF000C74261EB57310CFB0EF7B0EBC70072EB3E
:101B000057720CFB08F734BFA2EBC702B2EBC70257
:101B100061EB577115EB4C254FEA816141EA921157
:101B20004FEA82624FEAD13742EA901206FB07FC85
:101B300044F100044FEA80604FEA1C4C0CFB0BF7A9
:101B4000D21B03FB0CF761EB07010CFB0EF7B0EBAC
:101B5000074072EB17420CFB08F734BFA2EB0742B9
:101B6000B2EB074261EB174115EB1C154FEA8131CF
:101B700041EA92414FEA823242EA90424FEA803093
:101B80004FEA0C7644F1000448EA03434EEA0B485E
:101B90004FF0000EB2EB080C71EB030724BF624656
:101BA00039464EEB0E0E4FF0000B001852414941E2
:101BB0004BEB0B0BB2EB080C71EB03077BF1000B4B
:101BC00024BF624639464EEB0E0E4FF0000B001854
:101BD000524149414BEB0B0BB2EB080C71EB030785
:101BE0007BF1000B24BF624639464EEB0E0E51EAE4
:101BF000020718BF46F0010616EB0E7655F10002FB
:101C000054F1000103D5BDE88901BDE80088BDE8B5
:101C10008901BDE80048B619524141EB0101A3F129
:101C20000103704780807F7E7D7C7B7A7978777630
:101C300076757473727171706F6E6E6D6C6C6B6AA9
:101C40006A69686867666665646463636261616047
:101C5000605F5F5E5E5D5D5C5C5B5B5A5A595958C4
:101C6000585757565655555554545353525252512E
:101C7000515050504F4F4F4E4E4D4D4D4C4C4C4B84
:101C80004B4B4A4A4A4949494848484747474746CB
:101C90004646454545444444444343434342424207
:101CA00042414141002B26D4770021D01CB54FEA98
:101CB000370703B44FF010004FF010014FF0000051
:101CC0000FBCBDE810400BF1010BBBF1010F08BFC9
:101CD0005FEA170722BF12F1010211F101014FF073
:101CE000004143F1000300F0004043EA0000704768
:101CF000F9D35708DAE746EA064613F1400F4FEAF0
:101D000016461FDD13F1200FDFBF16430A460021E0
:101D100020335B42C8D0C3F1200746EA064602FAE8
:101D200007F74FEA164646EA0706C3F1200722FAEC
:101D300003F201FA07F721FA03F14FF0000342EA38
:101D40000702B1E746EA020646EA06464FEA1646A9
:101D500046EA0106BCBF46EA0646360C4FF00003D1
:101D60004FF000024FF000019EE72DE9C048934676
:101D700030B491E8380007C831EA400C48BF34EA73
:101D8000430C03D5FFF7F2FDFFF78CFFF0BCBDE875
:101D900000882DE9C048934630B491E8380007C860
:101DA00010F0804F08BF13F0804F03D100F005F80A
:101DB000FFF778FFF0BCBDE8008820F07F4780EA9D
:101DC000030023F07F4C07EB0C03A3F57C5300F0DA
:101DD0000040A3F1FE0392F0000F00F0B38095F0F5
:101DE000000F00F077802DE901494FEA11404FEADA
:101DF000144621EA004800FB06FC24EA064708FBDB
:101E000006F607FB08F800FB07F718EB06484CEB53
:101E1000164C4FEA124B18EB07484FEA15464CEBAD
:101E2000174022EA0B4E0BFB06FC25EA06470EFB89
:101E300006F607FB0EFE0BFB07F71EEB064E4CEB00
:101E4000164C4FF000061EEB074E4CEB174B18EBF1
:101E50000B0840F1000018EB0E0B58EB000840F1A6
:101E600000008F1A4FF000013CBFC943661B14BF2E
:101E7000B5EB040C00213CBFC943F61B4FEA1744E5
:101E80004EEA8E0E27EA04454FEA1C4704FB076220
:101E90002CEA074C05FB07F70CFB05F604FB0CFCD2
:101EA00016EB074642EB174216EB0C4642EB1C4280
:101EB0001BEB060658EB0202414146EA9E0601D59D
:101EC000BDE80189B619524141EB0101A3F10103BB
:101ED000BDE801894FEA14454FEA114724EA054657
:101EE00021EA074C05FB07F406FB07F70CFB06F19C
:101EF00005FB0CFC11EB074144EB17444FEA12477A
:101F000011EB0C4144EB1C4422EA074C05FB07F2A1
:101F100006FB07F70CFB06F605FB0CFC16EB074669
:101F200042EB174216EB0C4642EB1C456A1854F183
:101F3000000148BF7047B619524141EB0101A3F1BE
:101F40000103704795F0000F37D04FEA11424FEA76
:101F5000144721EA024624EA074C02FB07F106FB7C
:101F600007F70CFB06F402FB0CFC14EB074441EBF7
:101F700017414FEA154714EB0C4441EB1C4125EA8D
:101F8000074C02FB07F506FB07F70CFB06F602FB06
:101F90000CFC16EB074645EB174516EB0C4645EBDC
:101FA0001C42121951F1000148BF7047B619524145
:101FB00041EB0101A3F1010370474FEA14454FEAD9
:101FC000114724EA054621EA074C05FB07F106FB09
:101FD00007F70CFB06F24FF0000605FB0CFC12EBBA
:101FE000074241EB174112EB0C4251EB1C4148BF39
:101FF0007047921841EB0101A3F10103704743F6CA
:102000006B3CC9F2030C604743F66D3CC9F2030C0C
:10201000604742F6110CC9F2000C604742F2390CDD
:10202000C9F2000C604743F6711CC9F2000C60470E
:1020300045F2453CC9F2000C604743F22D7CC9F2E1
:10204000000C60474FF2590CC9F2000C60474FF684
:10205000956CC9F2000C604743F6096CC9F2030C99
:10206000604743F6D51CC9F2000C604741F6851C59
:10207000C9F2000C604741F2E54CC9F2000C604720
:102080004EF6A94CC9F2000C604743F6611CC9F238
:10209000000C604741F2212CC9F2000C604745F664
:1020A000857CC9F2000C60474DF26D2CC9F2020C20
:1020B000604740F6712CC9F2030C604741F2F94CBD
:1020C000C9F2030C604741F2036CC9F2030C60478C
:1020D00041F2276CC9F2030C604741F24D6CC9F222
:1020E000030C60474DF2994CC9F2020C60474DF267
:1020F000A94CC9F2020C60474DF2894CC9F2020C9E
:1021000060474DF27D4CC9F2020C604740F2192C39
:10211000C9F2030C604741F2E15CC9F2030C60476D
:102120004DF6E12CC9F2020C604743F2897CC9F2FA
:10213000030C604741F2E16CC9F2030C604740F2C6
:102140004D2CC9F2030C60474DF2A53CC9F2020CBC
:1021500060474DF2C93CC9F2020C604741F27B5C1A
:10216000C9F2030C60474DF63D0CC9F2020C604702
:102170004DF68D1CC9F2020C60474DF2756CC9F228
:10218000020C604742F6A57CC9F2030C60474DF291
:10219000552CC9F2020C604743F2F17CC9F2030CE2
:1021A000604743F2B16CC9F2030C60474DF2214C19
:1021B000C9F2020C60474FF67D4CC9F2020C604731
:1021C0004FF65F6CC9F2020C60474FF65B6CC9F2C8
:1021D000020C60474FF65D6CC9F2020C60474DF28D
:1021E0005D4CC9F2020C60474EF2153CC9F2020C7C
:1021F00060474EF2876CC9F2020C60474EF6EF2C36
:10220000C9F2020C60474EF2772CC9F2020C60470B
:102210004EF21B6CC9F2020C60474EF2CD6CC9F253
:10222000020C604741F2297CC9F2030C60474FF66B
:10223000035CC9F2020C604749F2393CC9F2030C55
:10224000604743F6510CC9F2030C604743F6732C08
:10225000C9F2030C604740F6B35CC9F2030C604757
:1022600043F2317CC9F2030C604743F27D5CC9F252
:10227000030C604743F2296CC9F2030C604743F238
:102280005D4CC9F2030C60474FF2575CC9F2020C77
:10229000604741F6ED1CC9F2030C604742F6AD5CA5
:1022A000C9F2030C604740F2057CC9F2030C604799
:1022B00040F24F5CC9F2030C604740F2C34CC9F2D4
:1022C000030C604740F2CD5CC9F2030C604740F656
:1022D0000D0CC9F2030C604740F6EF6CC9F2030C19
:1022E000604740F69D7CC9F2030C604743F6672CBB
:1022F000C9F2030C604743F69D2CC9F2030C6047FA
:1023000043F6292CC9F2030C60474FF2673CC9F22F
:10231000020C604749F2DF6CC9F2030C604743F6D8
:10232000432CC9F2030C604743F6313CC9F2030C5D
:1023300060474EF2612CC9F2020C60474FF6A14C87
:10234000C9F2020C604749F2EB6CC9F2030C60471A
:1023500040F61D6CC9F2030C604743F67F2CC9F2AE
:10236000030C604743F6053CC9F2030C60474EF28C
:10237000033CC9F2020C604742F2855CC9F2010CD1
:10238000604742F26D6CC9F2010C604742F2717C09
:10239000C9F2010C604743F63D5CC9F2030C60478B
:1023A0004EF6D50CC9F2000C60474EF6590CC9F236
:1023B000000C60474EF6890CC9F2000C60474EF6DF
:1023C0004D3CC9F2000C60474EF62D4CC9F2000C92
:1023D00060474EF6453CC9F2000C60474EF6712C42
:1023E000C9F2000C60474EF6BD3CC9F2000C6047D4
:1023F0004EF6473CC9F2000C60474EF64B3CC9F222
:10240000000C604743F6555CC9F2030C604746F286
:10241000C15CC9F2000C604746F2E16CC9F2000CE5
:10242000604742F2E96CC9F2010C604740F6BB1C00
:10243000C9F2000C604740F6151CC9F2000C604759
:1024400046F66D6CC9F2030C604741F2913CC9F24B
:10245000000C60474FF6AD6CC9F2000C604742F2C9
:10246000415CC9F2010C604740F6BF1CC9F2000C88
:1024700060474FF6856CC9F2000C604741F2454C4D
:10248000C9F2000C604744F6596CC9F2030C60476E
:1024900044F6792CC9F2030C604745F25D6CC9F231
:1024A000030C604744F6452CC9F2030C604745F223
:1024B000812CC9F2030C604742F6796CC9F2010C19
:1024C000604742F6716CC9F2010C604740F28D3CE6
:1024D000C9F2030C604740F29D2CC9F2030C60471F
:1024E00045F6515CC9F2010C60474EF6ED7CC9F22D
:1024F000010C604742F6094CC9F2010C6047FEE747
:10250000214A30B5136823F0010313601F4A136892
:10251000C3F30B140123A4F54065243D06D01268D3
:10252000C2F30B12A2F54064273C17D1184A126877
:10253000A2B9184A14684FF08A45B5EB045F18D069
:102540001468C4F30B04A4F58065833D11D01268B0
:10255000C2F30B02A2F58064853C0AD00E4A936058
:102560009368002BFCD110601068884209D00020CD
:1025700030BD0A4A13601368002BFCD1074A083AA1
:10258000F1E7012030BD0000002000E000ED00E098
:10259000002004E00010005C00300240084C0258AB
:1025A00070B4234E0020316811F4003F11D1BFF305
:1025B0004F8FBFF36F8F1F490860BFF34F8FBFF37B
:1025C0006F8F316841F400313160BFF34F8FBFF33B
:1025D0006F8F316811F4803F22D117490860BFF333
:1025E0004F8F081F43F6FF750068144AC0F34E3C36
:1025F000C0F3C90405EA4C11204600BF41EA8073CC
:102600001360401EFAD2BCF1010CF3D2BFF34F8F1E
:10261000306840F480303060BFF34F8FBFF36F8F6E
:102620000748016841F00401016070BC7047000078
:1026300014ED00E050EF00E084ED00E060EF00E01A
:102640009CEF00E00148FFF7E4BC0000D80E002436
:102650000148FFF7E3BC00004C0A0024704772B643
:10266000FEE72DE9F001D1E90832D1F81CC00C6871
:10267000F4B104684CEA030324F4F84422431A43F7
:102680000260D1E9012CD1E903454B6942EA0C0C07
:1026900042682C4389694CEA040C4CEA0303194351
:1026A0006FF30E0211434160BDE8F0010020704756
:1026B0000C1DD1E9056194E8B0012C4347EA0805F7
:1026C0002C4334430C43016844EA0C0C4CEA0303EA
:1026D0001A436FF30E0111430160E5E742696FF39E
:1026E0004D0242EA410141610020704730B4D1E916
:1026F0000225D1E9003C01696FF01F0404EB42148C
:1027000043EA0C0244EA45236FF315011A431143CF
:10271000016130BC002070472DE9F00FB1F814C002
:10272000002A2D4C4FF07F46CB6804EB0C526FF023
:10273000FF046FF00F0C4FEA042527D087681B03B6
:10274000A3F5805327F470471A4327F470073A43E0
:102750008260D1E900278B680CEB071C571E0A8AA0
:10276000097E04EB0323C46847EA0C0C05EB024224
:102770004CEA03031A4306EB0161114304F0704372
:102780001943C160BDE8F00F00207047D1E9008710
:10279000D1F80890DFF844A0B1F810B00CEB071C9A
:1027A000097EA8F1010704EB092447EA0C0C0AEBA7
:1027B00003334CEA040C4CEA030C836805EB0B442E
:1027C0004CEA040C06EB01614CEA0202114303F0EF
:1027D000704319438160D5E70000F0FF00F0FFFF70
:1027E000CB084FF00F0C490700EB8300036AC90EBA
:1027F0000CFA01FC02FA01F123EA0C020262026AFD
:102800001143016270470069084018BF01207047FA
:10281000FFF709BC2DE9F04F01274FF0030E4FF0F1
:10282000000CDDE9099800BF07FA0CF501EA050480
:10283000AC4238D1D0F800A04FEA4C04012A0EFA7D
:1028400004F602FA04FB2AEA060AC0F800A0D0F84F
:1028500000A04AEA0B0AC0F800A018BF022A18D14B
:10286000D0F808A009FA04FB2AEA060AC0F808A072
:10287000D0F808A04AEA0B0AC0F808A0D0F804A0D3
:102880002AEA0505456003FA0CFA456845EA0A0597
:102890004560C56808FA04F425EA0605C560C56800
:1028A00045EA0404C4600CF1010CBCF1100FBBD369
:1028B000BDE8F08F30B5B1B00446C0216846FEF7E0
:1028C00038F92068A0F1B041B1F518311CBF31B022
:1028D00030BD4FF4002268460023022108930725EB
:1028E000CDE90613CDE90451192409934FF4FC7C7A
:1028F00029938DE81C10FFF79BFB002818BFFFF7FA
:10290000AEFE0548016841F080710160006800F08A
:102910008070309031B030BDE0440258014800680A
:10292000000C70470010005C014880687047000090
:10293000B8000024002804BF0120704770B5026869
:1029400004464CF6CC4145F25550116021680860B0
:10295000D4E9000141602168A0688860FFF7E4FFC6
:1029600005462068C06810F0070F10D0FFF7DCFFA5
:10297000401B312806D92068C06810F0070F01D02D
:10298000032070BD2068C06810F0070FEED12168E9
:10299000E0680A69824212BF08614AF6AA2008600C
:1029A000002070BD01684AF6AA2008600020704728
:1029B000024881680278114481607047B8000024A1
:1029C000032010B500F022F900F060FB0F4A104917
:1029D00013681268C3F3032302F00F02CB5C895C17
:1029E00003F01F0201F01F01D0400A4A20FA01F152
:1029F0001160094908600F2000F010F800281CBF82
:102A0000012010BD00F0A6F8002010BD18440258A7
:102A1000C88F0108C8000024C400002410B5102885
:102A200004468AB02ED200220146372000F0BEF8BC
:102A3000372000F0ABF8194804601948016841F0EC
:102A400020010160006809A900F020000890684694
:102A500000F066FA0598C0B100F0BCFA4000114AD7
:102A60000021DFF844C0B0FBF2F2104840F2E73337
:102A7000C0F800C0C0E90331521EC0E9012101F0D5
:102A8000E1F828B10AB0012010BD00F0A3FAE6E792
:102A9000064801F07DF90AB010BD0000BC0000241A
:102AA000E844025840420F0000140040500F002438
:102AB000DFF858C0F0B443780CF10402111DCCF8D3
:102AC00000300378002B04BF002010601BD0436847
:102AD0001360057BC37A827A90F80DC02F07847B40
:102AE00047EA0367C57B47EAC242467A42EA8C421C
:102AF000037A42EA444242EA0542007842EA062268
:102B000042EA430210430860F0BC704798ED00E0D1
:102B1000BFF35F8F044800210368044A23F4803325
:102B2000036011607047000024ED00E094ED00E0C8
:102B3000074A40F0010005491060086840F4803001
:102B40000860BFF34F8FBFF36F8F704724ED00E035
:102B500094ED00E00C4808B5016841F00201016005
:102B6000006800220F2100F002000090901E00F08B
:102B70001DF805210022084600F018F8BDE80840BD
:102B8000052000F003B80000F44402580028B8BF44
:102B90007047410900F01F008A00012102F1E02284
:102BA00001FA00F0C2F8000170470000164B30B483
:102BB0001B68C3F30223C3F1070CBCF1040F88BFE9
:102BC0004FF0040C1C1D072C34BF0023DB1E012416
:102BD00004FA0CFC04FA03F5ACF101042140A5F160
:102BE000010C99400CEA0202114300284FEA01113E
:102BF000B8BF00F00F0000F1E020ACBF80F8001477
:102C000080F8141D30BC70470CED00E0074900F05F
:102C100007004FF6FF030A681A4042EA002040F01E
:102C2000FD7040F080600860704700000CED00E02F
:102C300014490A6812F0040F07D1096801F007016E
:102C4000814214BF01200020704770B50A6822F04D
:102C5000070210430860FFF767FE0B4D0446286823
:102C600010F4005F0CD100BFFFF75EFE001BB0F553
:102C70007A7F01D9012070BD286810F4005FF3D07D
:102C8000002070BD0C48025804480258002804BFB8
:102C9000012070472DE9F05FDFF85C9204468A4618
:102CA000D9F8000000F00F0050450DD2D9F800000F
:102CB00020F00F0040EA0A00C9F80000D9F800002F
:102CC00000F00F0050457DD120788C4D10F0040F9E
:102CD0000AD02069296801F07001884204D9296866
:102CE00021F07001084328602078854E10F0080F0D
:102CF0000AD06069316801F07001884204D93168F6
:102D000021F0700108433060207810F0100F0AD0D5
:102D1000A069316801F4E061884204D9316821F486
:102D2000E06108433060207810F0200F0BD0754828
:102D3000E169026802F07002914204D9026822F04F
:102D4000700211430160207810F0020F0AD0E06891
:102D5000296801F00F01884204D9296821F00F0188
:102D600008432860207810F0010F45D06648A1681C
:102D70002A6822F47062114329606168022926D012
:102D8000032929D0006801292BD010F0040F56D058
:102D90005E4F386820F0070008433860FFF7C4FD35
:102DA00039688046606801F03801B1EBC00F18BF88
:102DB00041F2883B20D000BFFFF7B6FDA0EB080032
:102DC000584500E03BE010D90320BDE8F09F0068C3
:102DD00010F4003FDCD132E0006810F0007FD7D162
:102DE0002DE010F4807FD3D129E06068396801F0CC
:102DF0003801B1EBC00FDFD1207810F0020F0AD0FC
:102E0000E068296801F00F01814204D9296821F0A6
:102E10000F0108432860D9F8000000F00F0050456A
:102E200010D9D9F8000020F00F0040EA0A00C9F8D4
:102E30000000D9F8000000F00F00504502D001203A
:102E4000BDE8F09F207810F0040F0AD020692968AF
:102E500001F07001814204D9296821F07001084312
:102E60002860207810F0080F0AD06069316801F0FE
:102E70007001814204D9316821F07001084330604B
:102E8000207810F0100F0AD0A069316801F4E061D9
:102E9000814204D9316821F4E06108433060207830
:102EA00010F0200F0BD01748E169026802F07002A1
:102EB0008A4204D9026822F070021143016000F0D6
:102EC000E5F813492B682A68C3F3032302F00F02C5
:102ED000CB5C895C03F01F0201F01F01D0400D4A5A
:102EE00020FA01F111600C4908600C480068BDE847
:102EF000F05FFFF793BD0000002000521844025815
:102F00001C440258204402580044025810440258FD
:102F1000C88F0108C8000024C4000024BC0000249D
:102F2000DFF85CC03F2230B40260164ADCF800C013
:102F3000131D0CF0070CC0F804C0DFF84CC01C1DBA
:102F4000156805F470658560156805F00F05C560A6
:102F5000126802F0700202611A6802F070024261A7
:102F60001A6802F4E0628261226802F07002C261B3
:102F7000DCF8000000F00F00086030BC7047000073
:102F800010440258184402580020005210B500F0B6
:102F90007DF80C4A0C490D4B1468D2F800C0C4F3FC
:102FA00003220CF00F0C8A5C11F80CC002F01F0118
:102FB000074A20FA01F10CF01F0021FA00F0186016
:102FC000116010BD18440258C88F0108C8000024C1
:102FD000C400002410B500F059F8104A1049114BF4
:102FE0001468D2F800C0C4F303220CF00F0C8A5C02
:102FF00011F80CC002F01F02D0400CF01F0220FAA2
:1030000002F21A60084B186008480068C0F302100A
:10301000085C00F01F0022FA00F010BD18440258AE
:10302000C88F0108C8000024C40000241C440258B2
:1030300010B500F02BF8104A1049114B1468D2F863
:1030400000C0C4F303220CF00F0C8A5C11F80CC012
:1030500002F01F02D0400CF01F0220FA02F21A60A8
:10306000084B186008480068C0F30220085C00F0B4
:103070001F0022FA00F010BD18440258C88F010842
:10308000C8000024C40000241C4402585E4930B427
:103090005E4809685E4B11F038020CD00111082A15
:1030A00006D0102A02BF5B4830BC7047182A0ED0E9
:1030B00030BC08467047196811F0200F04BF30BCBF
:1030C0007047196830BCC1F3C101C840704752490C
:1030D000524C01F1040C0A680968DCF800502468BD
:1030E00002F0030C05F00102C1F30511C4F3CC0496
:1030F000002914FB02F200EE102AF8EE400A02BF8B
:10310000002030BC7047BCF1000F9FED451A454AC6
:10311000B7EE000A1BD0DFED441ABCF1010F02D05C
:10312000BCF1020F4AD002EE101A1068F8EE422AE3
:10313000C0F3080081EEA22A01EE900AF8EE611AAF
:1031400040EE811A31EE800A22EE000A4BE0D3F8FD
:1031500000C01CF0200F1BD01B6801EE901A1168F4
:10316000C3F3C103F8EE612AD84001EE900AC1F31F
:103170000800F8EE611A81EEA22A01EE900AF8EE3C
:10318000611A40EE811A31EE800A22EE000A2AE02E
:1031900001EE901A1068DFED252AF8EE611AC0F3EF
:1031A000080082EEA12A01EE900AF8EE611A40EEC4
:1031B000811A31EE800A22EE000A14E001EE901A24
:1031C0001068DFED1B2AF8EE611AC0F3080082EEEA
:1031D000A12A01EE900AF8EE611A40EE811A31EE52
:1031E000800A22EE000A106830BCC0F34620401C62
:1031F00000EE900AF8EE600A80EE201ABCEEC10ADA
:1032000010EE100A70470000104402580090D003DE
:103210000044025840787D01284402583444025842
:1032200000000039304402580024744A0024744CD1
:1032300020BCBE4B002804BF012070472DE9F05F81
:1032400004460078DFF8F483FD4F10F0010FFD4DC8
:1032500058D0D8F80000396800F03800102819D08C
:10326000182804BF01F00300022813D06068B0F5ED
:10327000803F04BF286840F4803014D010B1B0F50E
:10328000A02F1BD0286820F480302860286820F404
:10329000802008E0286810F4003F33D060680028E0
:1032A00000F0E5822EE028606068D0B1FFF73CFBBB
:1032B0000646286810F4003F08D023E0286840F450
:1032C00080202860286840F48030ECE7FFF72CFB72
:1032D000801B642800F21B82286810F4003FF5D0A0
:1032E00010E0FFF721FB0646286810F4003F09D0E4
:1032F000FFF71AFB801B642800F20982286810F48B
:10330000003FF5D1207841F20309CF4E10F0020FB3
:103310007FD0D8F80000396810F0380014D0182891
:1033200008BF11F0030F0FD0E068D8B3296821F06F
:10333000190141EA00002860FFF7F6FA8246286882
:1033400010F0040F36D040E0286810F0040F03D0CE
:10335000E068002800F08B82E168286820F01900FE
:1033600008432860FFF7E0FA8246286810F0040F4F
:103370000BD100BFFFF7D8FAA0EB0A00022800F239
:10338000C681286810F0040FF4D0FFF7C7FA48454B
:1033900009D8206940281FD0316821F47C3141EAE6
:1033A00000301EE01FE0207C316821F0FE4141EA40
:1033B000006016E0FFF7B8FAA0EB0A00022800F25E
:1033C000A681286810F0040FF4D0FFF7A7FA48454B
:1033D000E9D820694028DFD1306820F47C3040F4FF
:1033E0000030306015E0286820F001002860FFF709
:1033F0009BFA8246286810F0040F0AD0FFF794FA6F
:10340000A0EB0A00022800F28281286810F0040F65
:10341000F4D1207810F0100F6FD0D8F80000DFF84A
:103420002CB2396800F03800082814D0182804BFDE
:1034300001F0030001280ED0E0690028286848D078
:1034400040F080002860FFF76FFA8246286810F489
:10345000807F26D02FE0286810F4807F1CBFE069B1
:10346000802840F00482FFF759FA48450ED8206AB8
:10347000202805D0316821F0F84141EA806026E03B
:10348000306820F0F84040F0804020E094F82000C0
:10349000DBF8001021F07C5141EA0060CBF800001D
:1034A0002BE0FFF741FAA0EB0A0002287AD828683F
:1034B00010F4807FF5D0FFF731FA4845E6D8216A4D
:1034C0002029DDD0306820F0F84040EA816030608B
:1034D00013E020F080002860FFF726FA06462868EF
:1034E00010F4807F09D000BFFFF71EFA801B02286E
:1034F00058D8286810F4807FF6D1207810F0080F93
:1035000034D0DFF84C9160690028D9F8000016D05B
:1035100040F00100C9F80000FFF706FA0646D9F8A6
:10352000000010F0020F21D1FFF7FEF9801B0228E6
:1035300038D8D9F8000010F0020FF5D016E020F0CE
:103540000100C9F80000FFF7EFF90646D9F80000BE
:1035500010F0020F0AD000BFFFF7E6F9801B022827
:1035600020D8D9F8000010F0020FF5D1207810F023
:10357000200F2CD0A0690028286814D040F4805077
:103580002860FFF7D1F90646286810F4005F1ED1C5
:10359000FFF7CAF9801B022804D8286810F4005FDE
:1035A000F6D014E07FE020F480502860FFF7BCF9EB
:1035B0000646286810F4005F09D000BFFFF7B4F991
:1035C000801B02286FD8286810F4005FF6D120789D
:1035D00010F0040F7AD0DFF87C90D9F8000040F4A6
:1035E0008070C9F80000FFF79FF90646D9F800007F
:1035F00010F4807F0AD100BFFFF796F9801B642882
:1036000051D8D9F8000010F4807FF5D0A068DFF819
:103610004890012804BFD9F8000040F001000CD008
:1036200008B1052829D0D9F8000020F00100C9F818
:103630000000D9F8000020F004000FE01044025808
:103640002844025800440258044402580C440258CA
:10365000744402580048025870440258C9F80000E7
:1036600041F2883AA068F8B1FFF75EF90646D9F84A
:10367000000010F0020F0BD028E0D9F8000040F055
:103680000400C9F80000D9F8000040F00100D4E7B8
:10369000FFF74AF9801B504539D8D9F8000010F0DF
:1036A000020FF5D012E032E0FFF73EF90646D9F8F6
:1036B000000010F0020F09D0FFF736F9801B5045CB
:1036C00025D8D9F8000010F0020FF5D1606A002863
:1036D0007ED0DFF8E491D8F8001009F1040801F079
:1036E00038011829A9F1040673D00228286820F0AF
:1036F000807028600ED0FFF717F90446286810F094
:10370000007F65D0FFF710F9001B02287DD9032048
:10371000BDE8F09FFFF708F98246286810F0007FA7
:103720000AD000BFFFF700F9A0EB0A000228EED88C
:10373000286810F0007FF5D1E16A3868A26A20F0AD
:10374000F30020F4407040EA01101043386094F810
:1037500034004FF4FE0194F83C70238E0A024FEAC5
:10376000402AB4F838C0781E5B1EAAF50077ACF189
:10377000010C07F47E47C3F308033B4301EA0C4105
:10378000194302EA00600843C9F80000306820F0DD
:1037900001003060D8F80000A16C6FF3CF0040EA60
:1037A000C100C8F800003168206C21F00C0108430A
:1037B00030603068616C20F002000843306030688F
:1037C00040F480303060306840F40030306001E018
:1037D0006FE025E0306840F480203060306840F0D1
:1037E00001003060286840F080702860FFF79CF886
:1037F0000446286810F0007F5BD100BFFFF794F803
:10380000001B022883D8286800E003E010F0007F46
:10381000F4D04EE0286810F0007F7FF473AF48E0EA
:1038200039680128D9F8000021D0A26A01F0030309
:1038300093421CD1E26AC1F305118A4217D1226B6F
:10384000C0F30801521E914211D1616BC0F34622B0
:10385000491E91420BD1A16BC0F30642491E914211
:1038600005D1E16BC0F30660491E814202D0012000
:10387000BDE8F09FA16CD8F80000C0F3CC008142F5
:1038800017D0306820F001003060FFF74DF8054692
:10389000FFF74AF8A842FBD0A06CD8F800106FF3ED
:1038A000CF0141EAC000C8F80000306840F00100D4
:1038B00030600020BDE8F09F30440258002804BF6B
:1038C0000120704770B5044690F82C000D4628B9C9
:1038D000002084F82D00204600F018F8022084F81B
:1038E0002C002068211DFEF7BCFED4E90002294609
:1038F000FEF712FF04480121026842F00042026014
:1039000084F82C10002070BD00400052F0B5B7B014
:103910003C480024009401940294039404940168A8
:1039200000291CBF37B0F0BD01210160C02106A8ED
:10393000FDF7FFF8002018944FF08071CDE90610D4
:1039400006A8FEF775FB002818BFFEF788FE2E4874
:10395000016841F480510160006802250326694630
:1039600000F48050059040F2FF60CDE90005274843
:103970000C27CDE902460497FEF75FFB4FF68370F4
:103980006946CDE900052248CDE902460497FEF7D5
:1039900054FB4FF47F406946CDE900051D48CDE951
:1039A00002460497FEF749FB48F237106946CDE915
:1039B00000051948CDE902460497FEF73EFB4CF29C
:1039C00003706946CDE900051448CDE90246049725
:1039D000FEF733FB4FF63F006946CDE9000510487E
:1039E000CDE902460497FEF728FB0D206946CDE994
:1039F00000050C48CDE902460497FEF71EFB37B0E0
:103A0000F0BD000020000024D444025800200258D9
:103A100000100258001C025800180258000C0258EE
:103A2000001402580008025810B5044690F82C0003
:103A3000022808BF10BD94F82C0001281CBF0120EB
:103A400010BD022084F82C002068FEF747FE0120FC
:103A500084F82C00002010BD70B5044690F82C00AE
:103A60000D46022808BF70BD01281EBF0528012091
:103A700070BD4FF0020084F82C002068FEF736FE7F
:103A8000286802280CBF0520012084F82C000020A3
:103A900070BD0000074808498288521C828008785F
:103AA000642888BF7047421E0A7028BF7047FEF71F
:103AB000C9BA0000D0000024280200240B4810B529
:103AC0000178002908BF10BD491E11F0FF010170E7
:103AD00018BF10BD064C611C04F1CA0094F8C9203F
:103AE000FCF786FF012084F8920110BD2402002417
:103AF000707100242DE9F041234CA078401CC0B225
:103B0000A0700A2818BFBDE8F08100251F4F284685
:103B1000A570397811F0010F04D00220FEF797FA52
:103B2000012007E0397811F0020F03D00320FEF7DF
:103B30008EFA0120164E3178012901D020B105E01E
:103B4000002808BF012001D1FEF781FA3078E0702B
:103B50006078401CC0B260700A2810D16570387857
:103B600010F0100F03D025700120307006E020788F
:103B7000401CC0B220700A2888BF35703D700120FB
:103B8000BDE8F041FEF768BAD0000024B0820024FE
:103B9000A0030024704770477047000090F83C2055
:103BA000012A04BF02207047F0B4244D4FF0010CED
:103BB00080F83CC0022280F83D200268204C536807
:103BC000AA42966818BFA24204D14F6823F470033A
:103BD00047EA03030F6823F0700347EA03035360C7
:103BE0000268AA4218BFB2F1804F1AD0A2F18043F6
:103BF000B3F580631CBFA2F18043B3F5006310D01E
:103C0000A2F18043B3F5406318BFA24209D0A2F1EC
:103C10008043B3F5C0531CBFA2F18043B3F5A0337A
:103C200004D18B6826F0800119439160002180F84F
:103C30003DC080F83C100846F0BC704700000140D1
:103C400000040140002804BF0120704710B504465D
:103C500090F83D0028B9002084F83C00204600F090
:103C600023F8022084F83D002068211D01F052FA5B
:103C7000012084F8480084F83E0084F83F0084F86E
:103C8000400084F8410084F8420084F8430084F83E
:103C9000440084F8450084F8460084F8470084F81E
:103CA0003D00002010BD000008B501683648A1F1B4
:103CB0008042B2F5806227D0A1F18042B2F58052F5
:103CC0002BD0A1F18042B2F5C05238D02F48A1F1DB
:103CD0008042B2F5A03244D0A1F18042B2F5A232C6
:103CE00018BF08BD016841F400310160006800227E
:103CF000052100F4003000907520FEF757FFBDE865
:103D000008407520FEF742BF016841F002010160E2
:103D1000006800F00200009008BD016841F0100149
:103D2000016000680022062100F01000009036209B
:103D3000FEF73CFFBDE808403620FEF727BF0168CC
:103D400041F04001016000680022072100F04000BE
:103D500000902B20FEF72AFFBDE808402B20FEF73D
:103D600015BF016841F4803101600068002206211E
:103D700000F4803000907420FEF718FFBDE8084082
:103D80007420FEF703BF0000E8440258F0440258D4
:103D900090F83D1001291CBF01207047022180F8D6
:103DA0003D100168CB6843F00103CB600068A0F1CF
:103DB0008042B2F5803218BFB0F1804F23D0A0F11D
:103DC0008041B1F580611CBFA0F18041B1F5006177
:103DD00019D0A0F18041B1F540611CBFA0F1804134
:103DE000B1F582310FD0A0F18041B1F5C0511CBFB7
:103DF000A0F18041B1F5A03105D0016841F0010189
:103E00000160002070478168034A1140062918BFED
:103E1000B1F5803FF5D0F0E707000100016841F2FD
:103E200011120B6A134208D10A6A40F244431A4243
:103E300003D10A6822F001020A60012180F83D10D6
:103E40000020704790F83C200023012A0DBF02207B
:103E50004FF0010C80F83CC0704770B4022280F82B
:103E60003D200268946824F0770424F4441424F478
:103E70007F4494600A68702A36D00CDC12F00F0F71
:103E800016D14FEA2214072C12D2DFE804F02121C8
:103E900021218E547100B2F1101F19D011DCB2F53E
:103EA000805F06D0B2F5005F31D0B2F5801F0FD031
:103EB000012380F83DC0002180F83C1070BC1846FA
:103EC0007047A2F5801120391CBF10292029EFD19D
:103ED00001688C6824F0700424F4401444EA02025F
:103EE00042F007028A60E4E7D1E901450268C96847
:103EF000966844EA012141EA050426F47F4144EA38
:103F00000101916001688A6842F0770211E0D1E90D
:103F100001450268C968966844EA012141EA05043E
:103F200026F47F4144EA0101916001688A6842F405
:103F300080428A60BDE702684C68C968156A166AE3
:103F400025F00A0526F001061662966945EA040482
:103F500026F0F00545EA01119161146201688A6852
:103F600022F0700222F4401242F057028A60A0E769
:103F700002684C68C968156A25F0100515629669D3
:103F8000156A26F4704625F0A00546EA01319161D4
:103F900045EA0414146201688A6822F0700222F46F
:103FA000401242F067028A6083E702684C68C96881
:103FB000156A166A25F00A0526F00106166296694A
:103FC00045EA040426F0F00545EA01119161146206
:103FD00001688A6822F0700222F4401242F047021F
:103FE0008A6066E7704770B504460068002501697D
:103FF00011F0020F1CBFC16811F0020F13D0012194
:104000006FF00202026121772068806910F0030FCF
:10401000204602D0FFF7E6FF04E000F0A8F82046B3
:1040200000F078FA25772068016911F0040F1CBFB1
:10403000C16811F0040F13D002216FF00402026175
:1040400021772068806910F4407F204602D0FFF776
:10405000C9FF04E000F08BF8204600F05BFA2577FA
:104060002068016911F0080F1CBFC16811F0080F2A
:1040700013D004216FF00802026121772068C06923
:1040800010F0030F204602D0FFF7ACFF04E000F071
:104090006EF8204600F03EFA25772068016911F09D
:1040A000100F1CBFC16811F0100F13D008216FF062
:1040B0001002026121772068C06910F4407F204619
:1040C00002D0FFF78FFF04E000F051F8204600F027
:1040D00021FA25772068016911F0010F1CBFC16822
:1040E00011F0010F05D06FF001010161204600F0D1
:1040F000AFFA2068016911F0800F1CBFC16811F090
:10410000800F05D06FF0800101612046FFF743FD6D
:104110002068016911F4807F1CBFC16811F0800F15
:1041200005D06FF4807101612046FFF733FD2068F0
:10413000016911F0400F1CBFC16811F0400F05D09C
:104140006FF040010161204600F0B6FA2068016975
:1041500011F0200F1ABFC16811F0200F70BD6FF071
:10416000200101612046BDE87040FFF715BD704792
:104170002DE9F04F054690F83C0000270C46012839
:104180000DBF0220012085F83C00BDE8F08F0C2A0D
:10419000DFF808C3C24EDFF80C83C349C34B00F0FD
:1041A000C78005DC8AB1042A61D0082A74D005E0F2
:1041B000102A00F0F980142A00F032810127002033
:1041C00085F83C003846BDE8F08F2868026A8842CE
:1041D00022F001020262D0F820904268D0F818A0C4
:1041E00029F00209D4F808E0D4F800B02AF0730AE4
:1041F0002AF4803A4EEA09094BEA0A0A18BF9842A3
:1042000004D060451CBFB042404507D1D4F80CB083
:1042100029F008094BEA090929F00409884218BF66
:10422000984204D060451CBFB042404507D122F4FB
:104230004071D4E9053243EA010142EA01024260D9
:10424000C0F818A061684163C0F8209028688169AF
:1042500041F0080181612868816921F004018161D0
:1042600028682169826942EA01018161A7E728681B
:10427000214600F0B1FF2868816941F40061816145
:104280002868816921F480618161286821698269D7
:1042900042EA0121E9E7FFE72868026A884222F43E
:1042A00080720262D0F820904268D0F81CA029F4F5
:1042B0000079D4F808E0D4F800B02AF0730A2AF4A0
:1042C000803A49EA0E294BEA0A0A18BF984207D1F8
:1042D000D4F80CB029F4006949EA0B2929F4806963
:1042E000884218BF984204D060451CBFB042404588
:1042F00007D122F44051D4E9053241EA031141EAE1
:1043000002124260C0F81CA06168C163C0F820902E
:104310002868C16941F00801C1612868C16921F0BC
:104320000401C16128682169C26942EA010139E0DA
:104330002868026A884222F480510162D0F82090F5
:104340004168C26929F40059D4F808B0D4F800A033
:1043500022F4E64222F0807249EA0B3942EA0A224C
:1043600018BF984204D060451CBFB042404504D1FC
:10437000636921F4804141EA83114160C26161684F
:104380000164C0F820902868C16941F40061C161EE
:104390002868C16921F48061C16128682169C26906
:1043A00042EA0121C1610AE72868026A22F48032E8
:1043B0000262D0F820904268D0F854A08842B4F845
:1043C00008E029F40039D4F800B02AF0700121F493
:1043D000803149EA0E494BEA010118BF984204D0E6
:1043E00060451CBFB042404504D1636922F480326D
:1043F00042EA03224260416561688165C0F820900D
:104400002868416D41F0080141652868416D21F03F
:104410000401416528682169426D42EA01013AE0E0
:104420002868026A22F480120262D0F82090426862
:10443000D0F854A08842B4F808E029F40019D4F860
:1044400000B02AF4E04121F0807149EA0E5941EAB6
:104450000B2118BF984204D060451CBFB0424045B4
:1044600004D1636922F4802242EA832242604165DA
:104470006168C165C0F820902868416D41F4006111
:1044800041652868416D21F4806141652868216992
:10449000426D42EA0121416591E600000040014081
:1044A0000044014000480140000001400004014078
:1044B000002804BF0120704710B5044690F83D0065
:1044C00028B9002084F83C00204600F022F80220A1
:1044D00084F83D002068211D00F01CFE012084F8B6
:1044E000480084F83E0084F83F0084F8400084F8D7
:1044F000410084F8420084F8430084F8440084F8C2
:10450000450084F8460084F8470084F83D00002008
:1045100010BD7047704700004FF0020381B10429BD
:1045200016D008291CD00C2922D0102928D090F8A8
:104530004320012A08BF80F8433028D0012070476B
:1045400090F83E20012A08BF80F83E30F6D11EE0E8
:1045500090F83F20012A08BF80F83F30EED116E0E6
:1045600090F84020012A08BF80F84030E6D10EE0E4
:1045700090F84120012A08BF80F84130DED106E0E2
:1045800090F84220012A08BF80F84230D6D14DF879
:10459000044D0268012301F01F01D2F820C003FA84
:1045A00001F12CEA01031362136A19431162244AD0
:1045B0000168244BDFF890C0914218BF99420AD09D
:1045C00061451FBFA1F18044B4F5A234A1F180443C
:1045D000B4F5A43403D14C6C44F400444C6400683A
:1045E000904218BFB0F1804F17D0A0F18041B1F5D3
:1045F00080611CBFA0F18041B1F500610DD0A0F138
:104600008041B1F5406118BF984206D0A0F18041C9
:10461000B1F5C05118BF604508D181680B4A01EA65
:104620000201062918BFB1F5803F03D0016841F0AF
:10463000010101605DF8044B4FF00000704700007D
:10464000000001400004014000400140070001005B
:1046500010B504460068A0F18041B1F5A05108BF33
:10466000FEF7A6F92068A0F18041B1F5805104BFA2
:104670002046FFF73FFA2068A0F18041B1F5A03154
:1046800004BF2046FFF71AFA2068A0F18041B1F577
:10469000C05104BF2046FFF7FDF92068A0F180411A
:1046A000B1F5A23118BF10BD02480168491C016074
:1046B00010BD0000000000247047FEE70148FDF730
:1046C000D0BC0000F80A002430B587B01B48002495
:1046D000194A04250094012101940294039404943E
:1046E0000594069484600260C0E90345047544752E
:1046F0008161047744628462C4620463446380F825
:104700003840FDF7B3FC002818BFFDF7A8FF0C48A0
:104710000621072240F2FF73CDE904548DE80F0013
:10472000064869468DF81940FDF7A5FC002818BF1A
:10473000FDF795FF07B030BD00600258C4090024A2
:10474000000084CB094808B5016841F0010101600F
:1047500000680022052100F0010000900B20FEF708
:1047600025FABDE808400B20FEF710BAD8440258DD
:10477000F0B518480127164D022220244FF0060CF0
:1047800087B0056000210823D601C0E90117C0E900
:10479000033440259702C0E90556D402C0E9071743
:1047A000C0E9094100920425CDE9013CCDE904525C
:1047B0006946CDF80CC00692FFF780F8002818BFB4
:1047C000FDF74DFF034800F079FA07B0F0BD000097
:1047D00040410052B40A0024F0B5A3B013F006FB28
:1047E000234C0021206020A820912191012112F06A
:1047F000C9FA204D1CAEA06195E80F0086E80F00B5
:1048000000211CA812F0A7FA1035606195E8CF10BE
:10481000103D8DE8CF100021684612F037FB2C3593
:1048200060600DF11C0E95E8CF102C3D8EE8CF1086
:10483000002107A812F02AFB4835A0600DF1380EC0
:1048400095E8CF10483D8EE8CF1000210EA812F059
:104850001DFB6435E06015AF95E86F1087E86F10B9
:10486000002115A812F012FB206123B0F0BD00005A
:1048700004000024488F010810B588B019480024AE
:1048800042F20F72EF23DFF858C0009480210194A8
:1048900002940394049405940694C0E902420461CE
:1048A0008161C0E900C3FFF7CDF9002818BFFDF70B
:1048B000D6FE4FF4805000900A486946FFF7C2FACE
:1048C000002818BFFDF7CBFE049404A90548069400
:1048D000FFF764F9002818BFFDF7C1FE08B010BD4E
:1048E00000180040380C002410B588B01A48002485
:1048F00040F2E7328021DFF85CC00094EF2301949E
:1049000002940394049405940694C0E9024204615D
:10491000C0E90541C0E900C3FFF794F9002818BFBA
:10492000FDF79DFE4FF4805000900B486946FFF75D
:1049300089FA002818BFFDF792FE049404A90648DE
:104940000694FFF72BF9002818BFFDF788FE08B082
:1049500010BD000000400140840C00240C4863227C
:104960000021DFF828C010B5EF23C0E90212016171
:1049700041618161C0E900C3FFF764F9002808BF05
:1049800010BDBDE81040FDF76ABE000000440140C4
:10499000D00C00242DE9F04194B03E4C00253C4E53
:1049A000EF2040F2B52700958021019502950395EF
:1049B0000495059506950795089509950A950B9513
:1049C0000C950D952660C4E90105A1612046C4E956
:1049D0000375FFF737F9002818BFFDF740FE4FF4C5
:1049E000805000902B486946FFF72CFA002818BF2A
:1049F000FDF735FE2748FFF75BFD002818BFFDF7E0
:104A00002EFE049504A923480695FFF7C7F8002851
:104A100018BFFDF724FE4FF00208CDF82480602077
:104A20000B95CDE907071B48042207A9FFF7A0FB58
:104A3000002818BFFDF713FE0E950F9510951195E0
:104A400012952068B0421CBF14B0BDE8F08104216B
:104A50001048FFF761FD104940F2B62008600F488A
:104A6000016841F002010160006803220121CDF8D4
:104A7000488000F0020013902020CDE90E08CDE917
:104A8000101207480EA9FDF7D8FA14B0BDE8F0815E
:104A900000040040A00B002438040040E044025809
:104AA0000004025810B584B01148002442F20F727D
:104AB000EF23DFF838C000948021019402948161D3
:104AC000C0E90242C0E900C3FFF7BCF8002818BFE4
:104AD000FDF7C5FD0094694605480294FFF75EF8AE
:104AE000002818BFFDF7BBFD04B010BD001000404A
:104AF000EC0B0024FEE7FEE76148F0B5016882B0E8
:104B000041F002010160026803255E4942F0200283
:104B10000260086801265C4C40F4804008605B4FEE
:104B20000023022204213846CDE90056FDF772FE2B
:104B30000023384602224021CDE90056FDF76AFEE7
:104B4000CDE90056524D002302224FF470712846E1
:104B5000FDF760FE092238460221FDF741FE0A22D8
:104B600038460621FDF73CFE092228460621FDF7BE
:104B700037FE092228460721FDF732FE0A22284681
:104B80000821FDF72DFE0A2228460921FDF728FEFF
:104B90004049086840F480400860086820F480427A
:104BA0003D480A60816811F0200FFBD13B493C4A27
:104BB00001604260016841F001010160816811F00B
:104BC000200FFBD14FF49C714161816811F0020FFD
:104BD000FBD0C16841F00201C160816811F0200F73
:104BE000FBD14FF483714161816811F0020FFBD05A
:104BF000C16841F00201C160816811F0200FFBD152
:104C00002849002241610261816811F0040FFBD044
:104C100030212170016841F004010160816811F0C8
:104C2000020FFBD0C16841F00201C160816811F040
:104C3000200FFBD1816811F0200FFBD1DFF868C095
:104C40001A49C2611A4BC0F814C0086820F48030B9
:104C500008601E68181D174D041D26F001071F600F
:104C6000261D4FF0104C02600527C4F800C03560C7
:104C70001F60086840F48030086002B0F0BD00009A
:104C8000E0440258D4440258205000520004025814
:104C9000001402587C4402580050005210030001D6
:104CA00001041600C0030003EBEF180F24ED00E031
:104CB00094ED00E02D000303704700004DF804ED73
:104CC00085B001210022084600911021019169461A
:104CD000CDE902021D484FF6FF72FEF7BDFE4FF40C
:104CE000FA70FDF7B9F90120022200920021039128
:104CF00010226946CDE9012014484FF6FF72FEF7F5
:104D0000ABFE0821032200920020039010220F48DE
:104D1000CDE901214FF6FF726946FEF79DFE0121A4
:104D200040F222200422039000921022CDE90121BA
:104D300006484FF6FF726946FEF78EFE05B003483F
:104D400040F23F715DF804EBFEF76EBEB40A00243A
:104D500011484FF47A610F4B82B003220360C160A7
:104D6000C0E90121FDF7E6FD002818BFFDF777FC3B
:104D70004FF0FF36094C06250096012306211A46FE
:104D8000206813F08DF835EA000004BF0248FDF7F3
:104D900009FEF1E700480058E80A00240400002456
:104DA000084C0021A06912F03FF818B9FDF74AF944
:104DB000FDF766F92068042113F026F80A2011F0A7
:104DC000BDFFEEE704000024502010B580F31188E9
:104DD000BFF34F8FBFF36F8F13F0D4FD18B10449A9
:104DE0004FF080500860002080F3118810BD000053
:104DF00004ED00E030B59DB04C216846FBF799FE0C
:104E0000002414941594022016941794189419945D
:104E10001A941B94FDF70CFF2F4A3048116821F0BB
:104E2000010111601168016841F4404101600168AD
:104E300001F440411391016811F4005FFBD028494F
:104E40000B6843F002030B60096801F00201139143
:104E5000016841F4404101600168116841F00101BD
:104E60001160116801F001011391016811F4005FF4
:104E7000FBD005210922009202200990012305930D
:104E80004FF4803CCDF804C0C0220C92CDE90A0159
:104E9000CDE90D0108250F90CDE910546846129414
:104EA000FEF7C8F908B172B6FEE740201694032257
:104EB0000301CDE917503F21CDE91903CDE91412C3
:104EC00004211B9014A8FDF7E1FE002804BF1DB0CB
:104ED00030BD72B6FEE700002C0400581848025896
:104EE000F4440258324870B4324A016841F4700107
:104EF0000160106800F00F00072805D2106820F04C
:104F00000F0040F0070010602B4900202B4B0C686D
:104F1000DFF8ACC044F001040C6018600B6803EAD1
:104F20000C030B60136803F00F03072B05D91368FC
:104F300023F00F0343F007031360DFF88CC0214A0E
:104F4000224B0CF10406341DCCF80000204DDFF894
:104F500084C030602E1D2060341D2B60231DC6F8D8
:104F600000C003F1040C22600CF10404251D18603C
:104F70002B1DCCF8002020602A6018600A68164BB0
:104F8000DFF858C022F480220A601860DCF80000C4
:104F90006FF30F00B0F1005F03D211490120C1F897
:104FA000080143F2D2000F49086070BC704700004E
:104FB00088ED00E0002000520044025810440258DE
:104FC0007FEDF6EA80020101184402580002020255
:104FD000284402580000FF01604402580010005CA1
:104FE0000080005100400052314E324F0024DFF863
:104FF000C890324DDFF8C8800221306812F004FFFB
:105000000A2011F09BFE21466FF01802A7FB013029
:10501000631CDCB2400900FB02F011EB8000EBD115
:1050200002214846FDF731F824484FF40071FBF7A0
:105030005EFD24492148FBF7CFFC23491F48FBF7BD
:10504000CBFC1E48FBF7A9FC284412F00DFD1E49BD
:105050001A48FBF7C1FC1D491848FBF7BDFC17496E
:105060001B48FBF7ABFA15484FF40071FBF73FFD07
:1050700018491248FBF7B0FC13491048FBF7ACFC89
:105080000E48FBF78AFC284412F078FC0E490B48C6
:10509000FBF7A2FC09490E48FBF790FAFCF7FAFF70
:1050A000BCEEC00A10EE100A88F80800A4E7000061
:1050B000040000241F85EB51000402586005002401
:1050C00054050024F46701082468010854680108A5
:1050D00080680108CC6801080148FEF784BF000021
:1050E000840C00240148FEF77EBF0000D00C002491
:1050F0000148FEF778BF0000EC0B00240148FEF7E2
:1051000072BF0000500F00240148FEF76CBF000082
:10511000380C00242DE9F003274B284C284D9842E9
:105120000268284EDFF8A0C018BFB0F1804F07D04A
:10513000A04218BFA84203D0B04218BF604504D1B6
:105140004F6822F0700247EA0202204FDFF88080A9
:105150009842DFF8809018BFB0F1804F0CD0A04289
:1051600018BFA84208D0B04218BF604504D0B8426A
:105170001CBF4045484504D1CC6822F4407244EA43
:1051800002024C6922F08002984242EA0402026064
:105190008A68C2620A68826218BF604504D0B84259
:1051A0001CBF4045484501D1096901634FF0010129
:1051B0004161BDE8F0037047000001400004004079
:1051C00000080040000C0040000401400040014085
:1051D0000044014000480140F0B4026ADFF880C09A
:1051E000204C22F0100260450262026A4368856921
:1051F00022F020028F680E6825F4E64525F08075C0
:1052000042EA071245EA062518BFA04206D1CE6839
:1052100022F0800242EA061222F04002604518BFE6
:10522000A0420DD0A0F1804CBCF5A03C1FBFA0F166
:10523000804CBCF5A23CA0F1804CBCF5A43C07D14D
:10524000D1E9054C23F4406343EA840343EA8C0329
:1052500043608561496881630262F0BC7047000069
:1052600000000140000401400148FCF718BF0000A5
:105270001C0D00240148FCF712BF0000B00D0024F3
:105280000148FCF70CBF0000440E0024FEE70000BC
:1052900002480068406801684969084770030024B3
:1052A00017484DF804ED8BB0007810F0010F23D1B2
:1052B000134810F0DEFEF8B1134B00203F214FF0F1
:1052C000040C07910121CDF800C00E4A0890099006
:1052D0000A90CDE904130692142303914B22CDE9E1
:1052E00001100A490A4801F0FFFF0A4A0A49FBF780
:1052F00019FB0348AFF300800BB005485DF804FBD1
:1053000010050024B4A20E9084A8010858090E903C
:10531000C8900024000000082973000817484DF8C1
:1053200004ED8BB0007810F0010F22D1134810F07B
:10533000A0FEF0B10020124A01214FF0050CCDF87B
:1053400000C00790089009900A900E4BCDE9030128
:10535000CDE90532CDE901100B4919230B484C2248
:1053600001F0C2FF0A4A0B49FBF7DCFA0348AFF32E
:1053700000800BB005485DF804FB00001405002414
:10538000A8A8010888A80108740D0E90F0900024C8
:10539000000000082973000817484DF804ED8BB091
:1053A000007810F0010F23D1134810F062FEF8B11D
:1053B000124A00203F214FF0040CCDF800C00791A5
:1053C0000121089009900A900D4BCDE90310CDE919
:1053D0000532CDE901100B4914230B486A2201F074
:1053E00083FF0A4A0A49FBF79DFA0348AFF300809E
:1053F0000BB005485DF804FBFC04002494A80108E8
:10540000B8A601085CEA0D90009000240000000896
:105410002973000817484DF804ED8BB0007810F0A0
:10542000010F23D1134810F024FEF8B1124A0020D6
:105430003F214FF0050CCDF800C0079101210890E5
:1054400009900A900D4BCDE90310CDE90532CDE965
:1054500001100B4918230B48A72201F045FF0A4A07
:105460000A49FBF75FFA0348AFF300800BB0054829
:105470005DF804FB0005002498A8010838A701087E
:1054800028F00D90289000240000000829730008DF
:1054900019484DF804ED8BB0007810F0010F27D1BA
:1054A000154810F0E6FD18B30020154B089049F69A
:1054B00096714FF0020CCDF80CC00A904FF0060C1C
:1054C0000E4A079101210990CDF800C0CDE90413DF
:1054D00006921E23CDE901100A49A3220A4801F0D1
:1054E00003FF0A4A0A49FBF71DFA0348AFF300809D
:1054F0000BB005485DF804FB040500249CA80108D6
:10550000B8A701084CF90D90509000240000000845
:1055100029730008164810B58CB0007810F0010F00
:1055200023D1134810F0A5FDF8B1134A00203F2104
:10553000079102230F494FF0010C09900A900924AA
:10554000CDE90402089041220691CDE902030B49FE
:1055500028230B48CDE9004C01F0C6FE094A0A4950
:10556000FBF7E0F90248AFF300800CB0044810BD2F
:1055700008050024A0A8010838A8010838020E90E8
:10558000789000240000000829730008164810B520
:105590008CB0007810F0010F23D1134810F069FD92
:1055A000F8B1134A00203F21079104230F494FF01F
:1055B000010C09900A900E24CDE9040208904122C2
:1055C0000691CDE902030B493C230B48CDE9004C81
:1055D00001F08AFE094A0A49FBF7A4F90248AFF331
:1055E00000800CB0044810BD0C050024A4A80108DC
:1055F00080A80108C8050E90A090002400000008B3
:105600002973000816484DF804ED8BB0007810F0AF
:10561000010F20D1124810F02CFDE0B10020124BF8
:105620003F21104ACDE907100A900121099000910D
:10563000CDE904030692192303900522CDE9011058
:105640000A490B4801F050FE0A4A0B49FBF76AF978
:105650000348AFF300800BB005485DF804FB000081
:10566000F40400248CA80108C8A5010894E90D9051
:10567000B08F0024000000082973000817484DF877
:1056800004ED8BB0007810F0010F23D1134810F017
:10569000F0FCF8B1134A00203F2107910A904FF027
:1056A000050C0F4901230990CDF800C0CDE9040293
:1056B0000890092206910390CDE901300A492A2376
:1056C0000A4801F011FE0A4A0A49FBF72BF9034880
:1056D000AFF300800BB005485DF804FBF80400242C
:1056E00090A8010840A60108DCE90D90D88F00249D
:1056F00000000008297300080B4910B501600B4930
:105700000B4A0A5000F56C3000F5D47002F03AFDF7
:10571000A0F56C30A0F5BE7002F034FD183802F030
:1057200031FD143810BD000010910108CCB1030008
:10573000E09101084FF4B1707047000000487047D5
:10574000008C002470477047044A0023836002F1F4
:105750001803C160C0E900237047000024910108CC
:1057600070477047704700002DE9F043002406465B
:1057700087B0D34A20F8044F012706F1580544802A
:1057800026218480C480B481F4813482748274615F
:10579000B461F4613484748486F8244086F82570FA
:1057A000C848B462306006F12C0034867486B48632
:1057B000F48634877487B487F48734647464B4647B
:1057C000A6F84C40A6F84E4086F8504080F8257068
:1057D000846202602846FBF7ACF9AC804FF0FF0909
:1057E000EC8026212C816C81AC81EC812C826C8236
:1057F0006C61AC61EC612C846C8485F8257085F853
:105800002690AC62B048EC62286085F82470303590
:105810002846FBF78EF9AC802621EC802C816C8128
:10582000AC81EC812C826C826C61AC61EC612C846B
:105830006C8485F8244085F8257085F82690AC6244
:10584000A248EC6228602C8634352846FBF771F9B3
:10585000AC804FF6FF71EC80621E2C816C81AC81B4
:10586000EC812C826C826C61AC61EC612C846C8468
:1058700085F82440DFF85C8285F825709448C5F8E7
:105880002880286006F58270A9852C63AC8685F88F
:10589000369085F8374085F8384085F83940AC8730
:1058A000EC87A5F84020A5F842206C6403F0A2F92B
:1058B000A0F5827600F1BC0520F8C04F0021894692
:1058C00044808480C480AC81EC812C826C826C61C9
:1058D000AC61EC612C846C8485F8244085F82570DB
:1058E0007D48AC6228604FF4487085F82C702F46D4
:1058F000EC85A5F5CA7530814FF4F0707081286889
:10590000026B2846904728684946426B28469047D4
:1059100028684FF448714FF4F079826B284690471D
:1059200028684946C26B28469047A7F5B475002100
:1059300089462868026B2846904728684946426B8A
:105940002846904728684FF448714FF4F079826BED
:105950002846904728684946C26B28469047601EF3
:10596000A86206F1580106F12C000BF01FF9303542
:10597000002189462868026B2846904728684946D6
:10598000426B2846904728684FF448714FF02B0926
:10599000826B2846904728684946C26B2846904744
:1059A0004FF07F40A86206F188010016E8620120EE
:1059B000288606F12C000BF0F9F8D6F8BC0005217A
:1059C000026B06F1BC009047D6F8BC000521426B83
:1059D00006F1BC0090473435601E47F8D40C27F818
:1059E000D04C29462868D0F8842068469047DDE9E5
:1059F0000001029A6A64C5E90F014FF48E70CDF878
:105A0000108004A9ADF8140006F1BC000AF04BFFA9
:105A100006F1BC0106F12C000BF0C8F857F8BC0CDD
:105A2000483505214FF03008026B2846904728681A
:105A30004146426B2846904728684FF4D67840F29A
:105A40001631826B2846904728684146C26B28462B
:105A500090474FF07F4106F5827002F069FF022106
:105A600006F5E070FCF720FB38683D462146026BE6
:105A70003846904728682146426B28469047386848
:105A8000FA210C46826B3846904728682146C26B43
:105A90002846904706F5E07106F5827003F027F876
:105AA00006F5827106F12C000BF080F806F12C014E
:105AB00030460BF07BF807B03046BDE8F0830000BD
:105AC00064A401084C910108D89601087096010859
:105AD0007CA30108449C0690F47C0690054AC0F81B
